:020000040800F2
:10000000005000204D0100089F010008AB010008CE
:10001000B1010008B7010008BD01000800000000A0
:10002000000000000000000000000000C301000804
:10003000CF01000800000000390700087907000818
:100040009D0100089D0100089D0100089D01000818
:100050009D0100089D0100089D0100089D01000808
:100060009D0100089D0100089D0100089D010008F8
:100070009D0100089D0100089D0100089D010008E8
:100080009D0100089D0100089D0100089D010008D8
:100090009D0100089D0100089D0100089D010008C8
:1000A0009D0100089D0100089D0100089D010008B8
:1000B0009D0100089D0100089D0100089D010008A8
:1000C0009D0100089D0100089D0100089D01000898
:1000D0009D010008810600089D0100089D0100089F
:1000E0009D0100089D0100089D010008000000001E
:1000F0000000000000000000000000000000000000
:0C01000000000000000000005FF808F1A3
:10010C0010B5054C237833B9044B13B10448AFF345
:10011C0000800123237010BD0000002000000000AF
:10012C00F40B000808B5034B1BB103490348AFF3AC
:10013C00008008BD0000000004000020F40B000843
:10014C00DFF834D0002103E00C4B5B5843500431F2
:10015C000B480C4B42189A42F6D30B4A02E0002390
:10016C0042F8043B094B9A42F9D300F0BBFA00F079
:10017C0017FD00F02DF8704700500020200C0008EF
:10018C00000000200000002000000020C802002019
:10019C00FEE780B400AF00BFBD4680BC704780B4A2
:1001AC0000AFFEE780B400AFFEE780B400AFFEE71F
:1001BC0080B400AFFEE780B400AF00BFBD4680BC8A
:1001CC00704780B400AF00BFBD4680BC70470000D4
:1001DC0080B586B002AF00F0E7F9114A3B1D07CAA3
:1001EC0083E807003B1D184600F086F801220D211C
:1001FC000C4800F0E6F800F0F5FAA02300930A4B47
:10020C000A4A02210A4800F0EFFB0246094B1A6029
:10021C0000F064FB002318461037BD4680BD00BFBC
:10022C000C0C000800100140D00000204502000812
:10023C00700100202000002001220D21084800F050
:10024C00C0F84FF47A7000F09FFB00220D21044897
:10025C0000F0B7F84FF47A7000F096FBECE700BFB3
:10026C000010014080B582B000AF786039607B68C7
:10027C00002B04DA3968786800F0B6F903E03968C5
:10028C00786800F0D5F800BF0837BD4680BD80B552
:10029C0000AF00F0C3F900BF80BD000080B400AF18
:1002AC00044A044B1B6843F01003136000BFBD46A7
:1002BC0080BC70470020024080B485B000AF03467C
:1002CC00FB710123FB73FB79022B0DD8094A094BF7
:1002DC001B6823F0030313600649064B1A68FB796D
:1002EC0013430B600023FB73FB7B18461437BD468E
:1002FC0080BC70470020024080B487B000AF7860AB
:10030C000023FB757B681B683B617B689B68BB604B
:10031C007B685B68FB60FB680F2B4AD8FB68072B7C
:10032C0006D9FB68083BFB607B681B6804333B61A8
:10033C00BB68022B15D83B691B68FA6892000F2129
:10034C0001FA02F2D2431A403B691A603B691A68FF
:10035C00FB689B00B96801FA03F31A433B691A6006
:10036C0029E0BB68072B21D83B691B68FA6892000F
:10037C000F2101FA02F2D2431A403B691A603B6921
:10038C001A68BB6803F00301FB689B0001FA03F3D6
:10039C001A433B691A603B691B68FA6892000C218E
:1003AC0001FA02F21A433B691A6004E00123FB755F
:1003BC0001E00123FB75FB7D18461C37BD4680BC54
:1003CC00704780B487B000AFF860B9607A600123E1
:1003DC00FB75BB680F2B25D87B68012B09D1FB68FB
:1003EC00DB680121BA6801FA02F21A43FB68DA6091
:1003FC000CE07B68002B09D1FB68DB680121BA6833
:10040C0001FA02F2D2431A40FB68DA60FB68DA6840
:10041C00BB6822FA03F303F001027B689A4201D114
:10042C000023FB75FB7D18461C37BD4680BC70470E
:10043C0080B483B000AF786039607B68002B08DB38
:10044C0006497B683A68D2B21201D2B20B4483F8E7
:10045C00002300BF0C37BD4680BC704700E100E0B4
:10046C0080B400AF174A174B1B6843F001031360AD
:10047C0000BF144B1B6803F00203022BF9D1114986
:10048C00104B5A68104B13404B600E4A0D4B1B68B7
:10049C0023F0847323F4803313600A4A094B1B68DE
:1004AC0023F480231360074A064B5B6823F4FE0396
:1004BC005360044B4FF41F029A6000BFBD4680BCD2
:1004CC00704700BF001002400000FFF880B483B0FA
:1004DC0000AF00237B600123FB70114A104B1B689B
:1004EC0043F4803313607B6801337B600C4B1B68D7
:1004FC0003F40033002B03D17B68B3F5A06FF2D16A
:10050C00074B1B6803F40033002B01D00023FB7056
:10051C00FB78DBB218460C37BD4680BC704700BF79
:10052C000010024080B400AF1E4A1E4B5B68536043
:10053C001C4A1C4B5B6853601A4A1A4B5B6843F4A9
:10054C0080635360174A174B5B6823F47C1353602A
:10055C00144A144B5B6843F4E0135360114A114B7B
:10056C001B6843F08073136000BF0E4B1B6803F0D5
:10057C000073002BF9D00B4A0A4B5B6823F0030382
:10058C005360084A074B5B6843F00203536000BF9B
:10059C00044B5B6803F00C03082BF9D100BFBD467C
:1005AC0080BC70470010024080B400AF044A044B7A
:1005BC009B6943F01003936100BFBD4680BC70473C
:1005CC000010024080B483B000AF7860BFF35F8F3F
:1005DC00044A7B689360BFF34F8F00BF0C37BD4656
:1005EC0080BC704700ED00E080B483B000AF786051
:1005FC0039607B68002B0ADA07497B6803F00F032C
:10060C00043B3A68D2B21201D2B20B441A7600BF44
:10061C000C37BD4680BC704700ED00E080B400AFE5
:10062C00044A044B5B6843F08053536000BFBD46E3
:10063C0080BC704700ED00E080B483B000AF786000
:10064C007B68B3F1807F01D301230CE0084A7B68FF
:10065C0023F07F43013B5360054B00229A60044B0F
:10066C0007221A60002318460C37BD4680BC704721
:10067C0010E000E080B582B000AF0023FB71174B97
:10068C001B889BB203F02003002B03D0FB7943F0B3
:10069C000103FB71114B1B889BB203F04003002B31
:1006AC0003D0FB7943F00203FB710C4B1B889BB20C
:1006BC0003F00103002B03D0FB7943F00403FB711F
:1006CC00074B1B68002B04D0054B1B68FA791046AE
:1006DC00984700BF0837BD4680BD00BF00380140B9
:1006EC007C01002080B500AFFFF7BAFE00F006F8E1
:1006FC004FF00060FFF766FF00BF80BD80B582B091
:10070C0000AF0123FB71FFF7E1FE0346FB71FB79A0
:10071C00DBB2002B06D1FFF7C1FD0220FFF7CCFDA9
:10072C00FFF700FF00BF0837BD4680BD72B60D4B0A
:10073C001B68002B07D02DE9F00F0A4B1B686A468B
:10074C00144622461A60084B1B68064A1360054B78
:10075C001B681B681C4684F30888BDE8F00F62B662
:10076C00704700BF940100209001002080B500AFBD
:10077C0000F0C0F8094B1B78022B07D9074B00225D
:10078C001A7072B600F05CF862B605E0034B1B7889
:10079C000133DAB2014B1A7000BF80BD1C0000207F
:1007AC0080B500AF00F016F8FCE7000080B582B011
:1007BC0002AFA0230093044B044A0021044800F02C
:1007CC0013F900BFBD4680BD28020020AD0700080C
:1007DC001C02002080B400AF30BF00BFBD4680BCFF
:1007EC007047000080B500AF0F4B00221A600F4B12
:1007FC0000221A600E4B00221A600E4B00221A6067
:10080C000F216FF00100FFF72DFD0E214FF0FF308F
:10081C00FFF728FDFFF7CAFF074B01221A60074BB1
:10082C0000221A6000BF80BD800100208C010020D6
:10083C00180200208801002084010020940100206F
:10084C0080B584B000AF204B1B68012B1DD91F4B0A
:10085C001B685A1E1C4B1B68134023F001031B4AD8
:10086C0013601A4B1B68002B13D1174B1B68FB60D2
:10087C00FB68B3FA83F3FB72FB7AC3F11F0301220B
:10088C0002FA03F3114A136003E00F4B1B680F4A83
:10089C0013600E4B1B687B607B68B3FA83F3FB70B1
:1008AC00FB78C3F11F030A4A52F82330094A13603C
:1008BC00084B1A68084B1B689A4201D0FFF7E7FCFB
:1008CC0000BF1037BD4680BD8C0100208401002084
:1008DC0098010020900100209401002080B500AF09
:1008EC000348FFF7A9FE72B6FFF7AAFF62B6FEE750
:1008FC004019010080B489B000AF204B1B68FB612C
:10090C0034E0FB69BB60BB68B3FA83F3FB71FB7922
:10091C00C3F11F03012202FA03F3BB61FB693B61C4
:10092C003B69B3FA83F3FB73FB7BC3F11F03144ADC
:10093C0052F823307B617B695B685A1E7B695A6075
:10094C007B695B68002B0CD10E4B1A68BB69134397
:10095C000C4A1360BB69DA43084B1B681340074A07
:10096C001360BB69DB43FA691340FB61FB69002B25
:10097C00C7D100BF2437BD4680BC70471802002089
:10098C00980100208C01002080B582B000AF786007
:10099C0072B6104B1A68104B1B689A4214D00E4B4F
:1009AC001B687A685A600D4B1B68DA430C4B1B684A
:1009BC0013400B4A1360094B1A680A4B1B6813430C
:1009CC00084A1360FFF73CFF62B600BF0837BD460C
:1009DC0080BD00BF980100209401002084010020FC
:1009EC008C0100201802002080B48BB000AFF8609E
:1009FC007A603B600B46FB723A683B6B134423F006
:100A0C0007037B627B6A043B7B627B6A4FF08072DC
:100A1C001A607B6A043B7B627A687B6A1A607B6A29
:100A2C00043B7B627B6A4D4A1A607B6A043B7B62A7
:100A3C007B6A4B4A1A607B6A043B7B627B6A494A3D
:100A4C001A607B6A043B7B627B6A474A1A607B6A4A
:100A5C00043B7B627B6A454A1A607B6A043B7B627F
:100A6C007B6A434A1A607B6A043B7B627B6A414A1D
:100A7C001A607B6A043B7B627B6A3F4A1A607B6A22
:100A8C00043B7B627B6A3D4A1A607B6A043B7B6257
:100A9C007B6A3B4A1A607B6A043B7B627B6A394AFD
:100AAC001A607B6A043B7B627B6A374A1A607B6AFA
:100ABC00043B7B627B6A354A1A607B6A043B7B622F
:100ACC007B6A334A1A60FB687A6A1A603B68013B9E
:100ADC0023F007030833FB617B6A043B7B6205E070
:100AEC007B6A1E4A1A607B6A043B7B627A6AFB69EA
:100AFC009A42F5D2274B1B68002B02D100233B6294
:100B0C000AE0244B1B68BB61BB69B3FA83F3FB752A
:100B1C00FB7DC3F120033B621F493B6AFA6841F835
:100B2C002320FB68FA7A1A7201223B6A9A40194B0D
:100B3C001B681343174A136001223B6A9A40174BF8
:100B4C001B681343154A136001223B6A02FA03F334
:100B5C0018462C37BD4680BC704700BFEFBEADDEDB
:100B6C000C00ADDE0300ADDE0200ADDE0100ADDE3B
:100B7C000000ADDE0B00ADDE0A00ADDE0900ADDE1F
:100B8C000800ADDE0700ADDE0600ADDE0500ADDE13
:100B9C000400ADDE80010020980100208C010020B3
:100BAC0070B500250C4E0D4CA41BA410A54209D108
:100BBC0000F01AF800250A4E0A4CA41BA410A542FA
:100BCC0005D170BD56F8253098470135EEE756F83B
:100BDC00253098470135F2E7180C0008180C00086E
:100BEC00180C00081C0C0008F8B500BFF8BC08BCB9
:100BFC009E467047F8B500BFF8BC08BC9E467047CF
:0C0C0C00001001400D000000040000007A
:040C1800310100089E
:040C1C000D010008BE
:040000050800014DA1
:00000001FF
